******************************************************************************
                  TI ARM Linker Unix v16.9.3                   
******************************************************************************
>> Linked Wed Oct 11 15:24:03 2017

OUTPUT FILE NAME:   <exercici6_freertos.out>
ENTRY POINT SYMBOL: "_c_int00"  address: 000038f1


MEMORY CONFIGURATION

         name            origin    length      used     unused   attr    fill
----------------------  --------  ---------  --------  --------  ----  --------
  MAIN                  00000000   00040000  00003be4  0003c41c  R  X
  INFO                  00200000   00004000  00000000  00004000  R  X
  SRAM_CODE             01000000   00010000  00000000  00010000  RW X
  SRAM_DATA             20000000   00010000  0000cb4c  000034b4  RW  


SEGMENT ALLOCATION MAP

run origin  load origin   length   init length attrs members
----------  ----------- ---------- ----------- ----- -------
00000000    00000000    00003be8   00003be8    r-x
  00000000    00000000    00000144   00000144    r-- .intvecs
  00000144    00000144    00003a4e   00003a4e    r-x .text
  00003b94    00003b94    0000000a   0000000a    r-- .const
  00003ba0    00003ba0    00000048   00000048    r-- .cinit
20000000    20000000    0000c94c   00000000    rw-
  20000000    20000000    0000c8ec   00000000    rw- .bss
  2000c8ec    2000c8ec    00000060   00000000    rw- .data
2000fe00    2000fe00    00000200   00000000    rw-
  2000fe00    2000fe00    00000200   00000000    rw- .stack


SECTION ALLOCATION MAP

 output                                  attributes/
section   page    origin      length       input sections
--------  ----  ----------  ----------   ----------------
.intvecs   0    00000000    00000144     
                  00000000    00000144     msp432_startup_ccs.obj (.intvecs:retain)

.text      0    00000144    00003a4e     
                  00000144    00001878     tasks.obj (.text)
                  000019bc    00000ca4     queue.obj (.text)
                  00002660    000003e4     main.obj (.text)
                  00002a44    00000328     system_msp432p401r.obj (.text)
                  00002d6c    00000288     port.obj (.text)
                  00002ff4    000001cc     heap_2.obj (.text)
                  000031c0    0000014c     msp432p4xx_driverlib.lib : cs.o (.text:CS_setDCOFrequency)
                  0000330c    0000012a     list.obj (.text)
                  00003436    00000002     rtsv7M4_T_le_v4SPD16_eabi.lib : mpu_init.obj (.text)
                  00003438    00000104     msp432p4xx_driverlib.lib : cs.o (.text:CS_getDCOFrequency)
                  0000353c    000000d2     portasm.obj (.text)
                  0000360e    00000002     rtsv7M4_T_le_v4SPD16_eabi.lib : startup.obj (.text)
                  00003610    0000009c     msp432p4xx_driverlib.lib : cs.o (.text:_CSComputeCLKFrequency)
                  000036ac    0000009c     rtsv7M4_T_le_v4SPD16_eabi.lib : memcpy_t2.obj (.text)
                  00003748    0000007a                                   : memset_t2.obj (.text)
                  000037c2    00000002     --HOLE-- [fill = 0]
                  000037c4    00000070                                   : autoinit.obj (.text)
                  00003834    00000068                                   : copy_decompress_lzss.obj (.text:decompress:lzss)
                  0000389c    00000054     msp432p4xx_driverlib.lib : cs.o (.text:CS_tuneDCOFrequency)
                  000038f0    00000054     rtsv7M4_T_le_v4SPD16_eabi.lib : boot.obj (.text)
                  00003944    00000054                                   : exit.obj (.text)
                  00003998    00000050     msp432p4xx_driverlib.lib : sysctl.o (.text:SysCtl_getTLVInfo)
                  000039e8    0000004c                              : cs.o (.text:_CSGetDOCFrequency)
                  00003a34    0000004c     rtsv7M4_T_le_v4SPD16_eabi.lib : cpy_tbl.obj (.text)
                  00003a80    00000048     msp432p4xx_driverlib.lib : cs.o (.text:_CSGetDividerValue)
                  00003ac8    00000024                              : cs.o (.text:CS_clearInterruptFlag)
                  00003aec    00000024                              : cs.o (.text:CS_setDCOCenteredFrequency)
                  00003b10    00000020     msp432_startup_ccs.obj (.text)
                  00003b30    00000018     msp432p4xx_driverlib.lib : cs.o (.text:CS_getMCLK)
                  00003b48    00000018     rtsv7M4_T_le_v4SPD16_eabi.lib : args_main.obj (.text)
                  00003b60    00000014                                   : _lock.obj (.text)
                  00003b74    0000000e                                   : copy_decompress_none.obj (.text:decompress:none)
                  00003b82    0000000c                                   : copy_zero_init.obj (.text:decompress:ZI)
                  00003b8e    00000004                                   : pre_init.obj (.text)

.const     0    00003b94    0000000a     
                  00003b94    00000008     port.obj (.const)
                  00003b9c    00000002     heap_2.obj (.const)

.cinit     0    00003ba0    00000048     
                  00003ba0    00000022     (.cinit..data.load) [load image, compression = lzss]
                  00003bc2    00000002     --HOLE-- [fill = 0]
                  00003bc4    0000000c     (__TI_handler_table)
                  00003bd0    00000008     (.cinit..bss.load) [load image, compression = zero_init]
                  00003bd8    00000010     (__TI_cinit_table)

.bss       0    20000000    0000c8ec     UNINITIALIZED
                  20000000    0000c800     heap_2.obj (.bss:ucHeap)
                  2000c800    00000064     tasks.obj (.bss:pxReadyTasksLists)
                  2000c864    00000014     tasks.obj (.bss:xDelayedTaskList1)
                  2000c878    00000014     tasks.obj (.bss:xDelayedTaskList2)
                  2000c88c    00000014     tasks.obj (.bss:xPendingReadyList)
                  2000c8a0    00000014     tasks.obj (.bss:xSuspendedTaskList)
                  2000c8b4    00000008     main.obj (.bss)
                  2000c8bc    00000008     tasks.obj (.bss)
                  2000c8c4    00000008     heap_2.obj (.bss:xEnd)
                  2000c8cc    00000008     heap_2.obj (.bss:xStart)
                  2000c8d4    00000006     (.common:commandVar)
                  2000c8da    00000002     --HOLE--
                  2000c8dc    00000004     (.common:hfxtFreq)
                  2000c8e0    00000004     (.common:lfxtFreq)
                  2000c8e4    00000004     (.common:xBinarySemaphore)
                  2000c8e8    00000004     (.common:xMutex)

.data      0    2000c8ec    00000060     UNINITIALIZED
                  2000c8ec    00000030     tasks.obj (.data)
                  2000c91c    0000000c     rtsv7M4_T_le_v4SPD16_eabi.lib : exit.obj (.data:$O1$$)
                  2000c928    0000000c     port.obj (.data)
                  2000c934    00000008     rtsv7M4_T_le_v4SPD16_eabi.lib : _lock.obj (.data:$O1$$)
                  2000c93c    00000008     heap_2.obj (.data)
                  2000c944    00000004     rtsv7M4_T_le_v4SPD16_eabi.lib : stkdepth_vars.obj (.data)
                  2000c948    00000004     system_msp432p401r.obj (.data)

.stack     0    2000fe00    00000200     UNINITIALIZED
                  2000fe00    00000200     --HOLE--

MODULE SUMMARY

       Module                     code    ro data   rw data
       ------                     ----    -------   -------
    ./
       main.obj                   996     0         22     
       system_msp432p401r.obj     808     0         4      
       msp432_startup_ccs.obj     32      324       0      
    +--+--------------------------+-------+---------+---------+
       Total:                     1836    324       26     
                                                           
    ./freertos/cortex-m4/
       port.obj                   648     8         12     
       portasm.obj                210     0         0      
    +--+--------------------------+-------+---------+---------+
       Total:                     858     8         12     
                                                           
    ./freertos/src/
       heap_2.obj                 460     2         51224  
       tasks.obj                  6264    0         236    
       queue.obj                  3236    0         0      
       list.obj                   298     0         0      
    +--+--------------------------+-------+---------+---------+
       Total:                     10258   2         51460  
                                                           
    /Applications/ti/ccsv7/tools/compiler/ti-cgt-arm_16.9.3.LTS/lib/rtsv7M4_T_le_v4SPD16_eabi.lib
       memcpy_t2.obj              156     0         0      
       memset_t2.obj              122     0         0      
       autoinit.obj               112     0         0      
       copy_decompress_lzss.obj   104     0         0      
       exit.obj                   84      0         12     
       boot.obj                   84      0         0      
       cpy_tbl.obj                76      0         0      
       _lock.obj                  20      0         8      
       args_main.obj              24      0         0      
       copy_decompress_none.obj   14      0         0      
       copy_zero_init.obj         12      0         0      
       pre_init.obj               4       0         0      
       stkdepth_vars.obj          0       0         4      
       mpu_init.obj               2       0         0      
       startup.obj                2       0         0      
    +--+--------------------------+-------+---------+---------+
       Total:                     816     0         24     
                                                           
    /Users/toni/Data/UAB/docencia/UOC/Sistemes Encastats/materials/Placa TI/exemples/lib/msp432p4xx_driverlib.lib
       cs.o                       1076    0         8      
       sysctl.o                   80      0         0      
    +--+--------------------------+-------+---------+---------+
       Total:                     1156    0         8      
                                                           
       Stack:                     0       0         512    
       Linker Generated:          0       70        0      
    +--+--------------------------+-------+---------+---------+
       Grand Total:               14924   404       52042  


LINKER GENERATED COPY TABLES

__TI_cinit_table @ 00003bd8 records: 2, size/record: 8, table size: 16
	.data: load addr=00003ba0, load size=00000022 bytes, run addr=2000c8ec, run size=00000060 bytes, compression=lzss
	.bss: load addr=00003bd0, load size=00000008 bytes, run addr=20000000, run size=0000c8ec bytes, compression=zero_init


LINKER GENERATED HANDLER TABLE

__TI_handler_table @ 00003bc4 records: 3, size/record: 4, table size: 12
	index: 0, handler: __TI_decompress_lzss
	index: 1, handler: __TI_decompress_none
	index: 2, handler: __TI_zero_init


GLOBAL SYMBOLS: SORTED ALPHABETICALLY BY Name 

address   name                             
-------   ----                             
00003945  C$$EXIT                          
00003ac9  CS_clearInterruptFlag            
00003439  CS_getDCOFrequency               
00003b31  CS_getMCLK                       
00003aed  CS_setDCOCenteredFrequency       
000031c1  CS_setDCOFrequency               
0000389d  CS_tuneDCOFrequency              
000029a9  PORT1_IRQHandler                 
UNDEFED   SHT$$INIT_ARRAY$$Base            
UNDEFED   SHT$$INIT_ARRAY$$Limit           
00003999  SysCtl_getTLVInfo                
2000c948  SystemCoreClock                  
00002a45  SystemCoreClockUpdate            
00002cb9  SystemInit                       
4000480c  WDTCTL_SYM                       
20010000  __STACK_END                      
00000200  __STACK_SIZE                     
00003bd8  __TI_CINIT_Base                  
00003be8  __TI_CINIT_Limit                 
00003bc4  __TI_Handler_Table_Base          
00003bd0  __TI_Handler_Table_Limit         
000037c5  __TI_auto_init                   
2000c91c  __TI_cleanup_ptr                 
00003835  __TI_decompress_lzss             
00003b75  __TI_decompress_none             
2000c920  __TI_dtors_ptr                   
2000c924  __TI_enable_exit_profile_output  
ffffffff  __TI_pprof_out_hndl              
ffffffff  __TI_prof_data_size              
ffffffff  __TI_prof_data_start             
00000000  __TI_static_base__               
00003b83  __TI_zero_init                   
00003749  __aeabi_memclr                   
00003749  __aeabi_memclr4                  
00003749  __aeabi_memclr8                  
000036ad  __aeabi_memcpy                   
000036ad  __aeabi_memcpy4                  
000036ad  __aeabi_memcpy8                  
0000374b  __aeabi_memset                   
0000374b  __aeabi_memset4                  
0000374b  __aeabi_memset8                  
ffffffff  __binit__                        
ffffffff  __c_args__                       
00003437  __mpu_init                       
2000fe00  __stack                          
00003b49  _args_main                       
000038f1  _c_int00                         
2000c934  _lock                            
00003b6f  _nop                             
00003b67  _register_lock                   
00003b61  _register_unlock                 
0000360f  _system_post_cinit               
00003b8f  _system_pre_init                 
2000c938  _unlock                          
00003949  abort                            
ffffffff  binit                            
2000c8d4  commandVar                       
00003a35  copy_in                          
00000489  eTaskGetState                    
00003951  exit                             
00000000  interruptVectors                 
00002661  main                             
2000c944  main_func_sp                     
000036ad  memcpy                           
00003751  memset                           
00000a55  pcTaskGetName                    
00002ff5  pvPortMalloc                     
00001439  pvTaskIncrementMutexHeldCount    
2000c8ec  pxCurrentTCB                     
00002d6d  pxPortInitialiseStack            
00002401  ucQueueGetQueueType              
00003b94  ulMaxSyscallInterruptPriority    
0000354d  ulPortGetIPSR                    
00001451  ulTaskNotifyTake                 
000033ef  uxListRemove                     
000023e1  uxQueueGetQueueNumber            
00002339  uxQueueMessagesWaiting           
00002397  uxQueueMessagesWaitingFromISR    
00002363  uxQueueSpacesAvailable           
00000a4b  uxTaskGetNumberOfTasks           
00000a99  uxTaskGetSystemState             
00000fed  uxTaskGetTaskNumber              
00000511  uxTaskPriorityGet                
00000541  uxTaskPriorityGetFromISR         
00001417  uxTaskResetEventItemValue        
0000330d  vListInitialise                  
0000333d  vListInitialiseItem              
00003389  vListInsert                      
0000334d  vListInsertEnd                   
00003601  vPortEnableVFP                   
00002e8d  vPortEndScheduler                
00002eb1  vPortEnterCritical               
00002ef3  vPortExitCritical                
000030fb  vPortFree                        
00003163  vPortInitialiseBlocks            
000035c5  vPortSVCHandler                  
00002f45  vPortSetupTimerInterrupt         
000035e5  vPortStartFirstTask              
00002f5f  vPortValidateInterruptPriority   
000023bd  vQueueDelete                     
000023ef  vQueueSetQueueNumber             
00000437  vTaskDelay                       
0000035d  vTaskDelayUntil                  
000008f5  vTaskEndScheduler                
000010a1  vTaskGetInfo                     
00000fe5  vTaskMissedYield                 
000017d7  vTaskNotifyGiveFromISR           
00000d23  vTaskPlaceOnEventList            
00000d5d  vTaskPlaceOnUnorderedEventList   
00001275  vTaskPriorityInherit             
00000599  vTaskPrioritySet                 
000007f7  vTaskResume                      
0000100d  vTaskSetTaskNumber               
00000f15  vTaskSetTimeOutState             
00000889  vTaskStartScheduler              
000006cd  vTaskSuspend                     
00000911  vTaskSuspendAll                  
00000c9d  vTaskSwitchContext               
2000c8e4  xBinarySemaphore                 
2000c8e8  xMutex                           
0000315d  xPortGetFreeHeapSize             
00003565  xPortPendSVHandler               
00002df9  xPortStartScheduler              
00002f1f  xPortSysTickHandler              
00001c1b  xQueueCreateCountingSemaphore    
00001b43  xQueueCreateMutex                
00001a6f  xQueueGenericCreate              
00001ffb  xQueueGenericReceive             
000019bd  xQueueGenericReset               
00001c79  xQueueGenericSend                
00001e05  xQueueGenericSendFromISR         
00001f0d  xQueueGiveFromISR                
00001b6f  xQueueGiveMutexRecursive         
000025d5  xQueueIsQueueEmptyFromISR        
0000262b  xQueueIsQueueFullFromISR         
0000228d  xQueuePeekFromISR                
000021b1  xQueueReceiveFromISR             
00001bbf  xQueueTakeMutexRecursive         
00000f43  xTaskCheckForTimeOut             
00000145  xTaskCreate                      
0000157d  xTaskGenericNotify               
00001699  xTaskGenericNotifyFromISR        
0000124f  xTaskGetCurrentTaskHandle        
00000a27  xTaskGetTickCount                
00000a37  xTaskGetTickCountFromISR         
00000b6d  xTaskIncrementTick               
000018c1  xTaskNotifyStateClear            
000014cd  xTaskNotifyWait                  
0000133d  xTaskPriorityDisinherit          
00000dc1  xTaskRemoveFromEventList         
00000e5d  xTaskRemoveFromUnorderedEventList
00000929  xTaskResumeAll                   


GLOBAL SYMBOLS: SORTED BY Symbol Address 

address   name                             
-------   ----                             
00000000  __TI_static_base__               
00000000  interruptVectors                 
00000145  xTaskCreate                      
00000200  __STACK_SIZE                     
0000035d  vTaskDelayUntil                  
00000437  vTaskDelay                       
00000489  eTaskGetState                    
00000511  uxTaskPriorityGet                
00000541  uxTaskPriorityGetFromISR         
00000599  vTaskPrioritySet                 
000006cd  vTaskSuspend                     
000007f7  vTaskResume                      
00000889  vTaskStartScheduler              
000008f5  vTaskEndScheduler                
00000911  vTaskSuspendAll                  
00000929  xTaskResumeAll                   
00000a27  xTaskGetTickCount                
00000a37  xTaskGetTickCountFromISR         
00000a4b  uxTaskGetNumberOfTasks           
00000a55  pcTaskGetName                    
00000a99  uxTaskGetSystemState             
00000b6d  xTaskIncrementTick               
00000c9d  vTaskSwitchContext               
00000d23  vTaskPlaceOnEventList            
00000d5d  vTaskPlaceOnUnorderedEventList   
00000dc1  xTaskRemoveFromEventList         
00000e5d  xTaskRemoveFromUnorderedEventList
00000f15  vTaskSetTimeOutState             
00000f43  xTaskCheckForTimeOut             
00000fe5  vTaskMissedYield                 
00000fed  uxTaskGetTaskNumber              
0000100d  vTaskSetTaskNumber               
000010a1  vTaskGetInfo                     
0000124f  xTaskGetCurrentTaskHandle        
00001275  vTaskPriorityInherit             
0000133d  xTaskPriorityDisinherit          
00001417  uxTaskResetEventItemValue        
00001439  pvTaskIncrementMutexHeldCount    
00001451  ulTaskNotifyTake                 
000014cd  xTaskNotifyWait                  
0000157d  xTaskGenericNotify               
00001699  xTaskGenericNotifyFromISR        
000017d7  vTaskNotifyGiveFromISR           
000018c1  xTaskNotifyStateClear            
000019bd  xQueueGenericReset               
00001a6f  xQueueGenericCreate              
00001b43  xQueueCreateMutex                
00001b6f  xQueueGiveMutexRecursive         
00001bbf  xQueueTakeMutexRecursive         
00001c1b  xQueueCreateCountingSemaphore    
00001c79  xQueueGenericSend                
00001e05  xQueueGenericSendFromISR         
00001f0d  xQueueGiveFromISR                
00001ffb  xQueueGenericReceive             
000021b1  xQueueReceiveFromISR             
0000228d  xQueuePeekFromISR                
00002339  uxQueueMessagesWaiting           
00002363  uxQueueSpacesAvailable           
00002397  uxQueueMessagesWaitingFromISR    
000023bd  vQueueDelete                     
000023e1  uxQueueGetQueueNumber            
000023ef  vQueueSetQueueNumber             
00002401  ucQueueGetQueueType              
000025d5  xQueueIsQueueEmptyFromISR        
0000262b  xQueueIsQueueFullFromISR         
00002661  main                             
000029a9  PORT1_IRQHandler                 
00002a45  SystemCoreClockUpdate            
00002cb9  SystemInit                       
00002d6d  pxPortInitialiseStack            
00002df9  xPortStartScheduler              
00002e8d  vPortEndScheduler                
00002eb1  vPortEnterCritical               
00002ef3  vPortExitCritical                
00002f1f  xPortSysTickHandler              
00002f45  vPortSetupTimerInterrupt         
00002f5f  vPortValidateInterruptPriority   
00002ff5  pvPortMalloc                     
000030fb  vPortFree                        
0000315d  xPortGetFreeHeapSize             
00003163  vPortInitialiseBlocks            
000031c1  CS_setDCOFrequency               
0000330d  vListInitialise                  
0000333d  vListInitialiseItem              
0000334d  vListInsertEnd                   
00003389  vListInsert                      
000033ef  uxListRemove                     
00003437  __mpu_init                       
00003439  CS_getDCOFrequency               
0000354d  ulPortGetIPSR                    
00003565  xPortPendSVHandler               
000035c5  vPortSVCHandler                  
000035e5  vPortStartFirstTask              
00003601  vPortEnableVFP                   
0000360f  _system_post_cinit               
000036ad  __aeabi_memcpy                   
000036ad  __aeabi_memcpy4                  
000036ad  __aeabi_memcpy8                  
000036ad  memcpy                           
00003749  __aeabi_memclr                   
00003749  __aeabi_memclr4                  
00003749  __aeabi_memclr8                  
0000374b  __aeabi_memset                   
0000374b  __aeabi_memset4                  
0000374b  __aeabi_memset8                  
00003751  memset                           
000037c5  __TI_auto_init                   
00003835  __TI_decompress_lzss             
0000389d  CS_tuneDCOFrequency              
000038f1  _c_int00                         
00003945  C$$EXIT                          
00003949  abort                            
00003951  exit                             
00003999  SysCtl_getTLVInfo                
00003a35  copy_in                          
00003ac9  CS_clearInterruptFlag            
00003aed  CS_setDCOCenteredFrequency       
00003b31  CS_getMCLK                       
00003b49  _args_main                       
00003b61  _register_unlock                 
00003b67  _register_lock                   
00003b6f  _nop                             
00003b75  __TI_decompress_none             
00003b83  __TI_zero_init                   
00003b8f  _system_pre_init                 
00003b94  ulMaxSyscallInterruptPriority    
00003bc4  __TI_Handler_Table_Base          
00003bd0  __TI_Handler_Table_Limit         
00003bd8  __TI_CINIT_Base                  
00003be8  __TI_CINIT_Limit                 
2000c8d4  commandVar                       
2000c8e4  xBinarySemaphore                 
2000c8e8  xMutex                           
2000c8ec  pxCurrentTCB                     
2000c91c  __TI_cleanup_ptr                 
2000c920  __TI_dtors_ptr                   
2000c924  __TI_enable_exit_profile_output  
2000c934  _lock                            
2000c938  _unlock                          
2000c944  main_func_sp                     
2000c948  SystemCoreClock                  
2000fe00  __stack                          
20010000  __STACK_END                      
4000480c  WDTCTL_SYM                       
ffffffff  __TI_pprof_out_hndl              
ffffffff  __TI_prof_data_size              
ffffffff  __TI_prof_data_start             
ffffffff  __binit__                        
ffffffff  __c_args__                       
ffffffff  binit                            
UNDEFED   SHT$$INIT_ARRAY$$Base            
UNDEFED   SHT$$INIT_ARRAY$$Limit           

[152 symbols]
